:100000000C945D000C9414020C94ED010C9485008A
:100010000C9485000C9485000C9485000C9485004C
:100020000C9485000C9485000C9485000C9485003C
:100030000C9485000C9485000C9485000C9485002C
:100040000C94A3010C9485000C9485000C948500FD
:100050000C9485000C9485000C9485000C9485000C
:100060000C9485000C9485000000000024002700FB
:100070002A0000000000250028002B0004040404CE
:100080000404040402020202020203030303030342
:10009000010204081020408001020408102001021F
:1000A00004081020000000080002010000030407FB
:1000B0000000000000000000600611241FBECFEF0A
:1000C000D8E0DEBFCDBF13E0A0E0B1E0EAEAFDE09A
:1000D00002C005900D92AE31B107D9F723E0AEE131
:1000E000B3E001C01D92A135B207E1F710E0CDE504
:1000F000D0E004C02197FE010E94CD06CC35D10787
:10010000C9F70E943B020C94D3060C94000090E0C7
:10011000FC01EC55FF4F2491FC01E057FF4F349157
:10012000FC01E458FF4FE491EE2309F43CC0222384
:1001300039F1233091F038F42130A9F0223001F563
:1001400084B58F7D12C0273091F02830A1F0243083
:10015000B9F4809180008F7D03C0809180008F77FB
:10016000809380000DC084B58F7784BD09C08091D5
:10017000B0008F7703C08091B0008F7D8093B00076
:10018000F0E0EE0FFF1FEE58FF4FA591B4919FB71F
:10019000F894611104C08C913095382302C0EC9121
:1001A0003E2B3C939FBF0895CF93DF9390E0FC01DB
:1001B000EE0FFF1FEA5BFC4FC581D681DF709C010B
:1001C0003327269537952227C22BD32BFC01EA5BD8
:1001D000FC4F218191E0292730E0322F22273295F0
:1001E000330F307EC22BD32B83819827892F90E049
:1001F000982F88279295907FC82BD92B8CB5837F19
:100200008CBD60E080914F030E948700DEBD00003E
:100210000DB407FEFDCF8EB5CEBD00000DB407FEB8
:10022000FDCF8EB561E080914F03DF91CF910C94AB
:100230008700CF93DF9390E0FC01E057FF4F2491BC
:10024000FC01E458FF4F8491882361F190E0880F0E
:10025000991FFC01E859FF4FC591D491FC01EE585C
:10026000FF4FA591B491611109C09FB7F89488819F
:10027000209582238883EC912E230BC0623061F499
:100280009FB7F8948881322F309583238883EC912F
:100290002E2B2C939FBF06C08FB7F894E8812E2B8E
:1002A00028838FBFDF91CF91089581E080931D0156
:1002B000089581E080931C010895089540912C03D6
:1002C00050912D0360912E0370912F0380912A038A
:1002D000413090E259076105710544F090911E0389
:1002E000992321F0816080932A0308958E7F809363
:1002F0002A0341155042610571051CF481E0809389
:100300001E03089530917A0090917A00987F94604E
:1003100090937A008E3008F08E50877080648093BE
:100320007C0080917A00806480937A0080917A00CA
:1003300086FDFCCF809178002091790030937A007F
:1003400090E0922B08951F920F920FB60F921124F6
:100350002F933F938F939F93AF93BF9380914203CB
:1003600090914303A0914403B09145033091410320
:1003700023E0230F2D3720F40196A11DB11D05C0E8
:1003800026E8230F0296A11DB11D209341038093FF
:10039000420390934303A0934403B0934503809199
:1003A0003D0390913E03A0913F03B091400301961D
:1003B000A11DB11D80933D0390933E03A0933F0385
:1003C000B0934003BF91AF919F918F913F912F9137
:1003D0000F900FBE0F901F9018951F920F920FB69F
:1003E0000F9211242F933F934F935F936F937F93BB
:1003F0008F939F93AF93BF93EF93FF93E09102018D
:10040000F09103010995FF91EF91BF91AF919F91F9
:100410008F917F916F915F914F913F912F910F90AD
:100420000FBE0F901F9018951F920F920FB60F924C
:1004300011242F933F934F935F936F937F938F93E9
:100440009F93AF93BF93EF93FF93E0910001F091DF
:1004500001010995FF91EF91BF91AF919F918F910C
:100460007F916F915F914F913F912F910F900FBEB0
:100470000F901F901895789484B5826084BD84B5E0
:10048000816084BD85B5826085BD85B5816085BD8F
:1004900080916E00816080936E0010928100809147
:1004A00081008260809381008091810081608093CF
:1004B0008100809180008160809380008091B100F4
:1004C00084608093B1008091B00081608093B0001F
:1004D00080917A00846080937A0080917A008260B3
:1004E00080937A0080917A00816080937A00809175
:1004F0007A00806880937A001092C10085E591E0CF
:100500009093010180930001809169008360809342
:100510006900E89A89E591E09093030180930201D4
:10052000809169008C6080936900E99A109246037B
:100530008AE080934F0361E00E94190161E080919D
:100540004F030E948700CFB7F89480911F03811159
:1005500027C0E6E8F0E08491EAE9F0E09491E82F22
:10056000F0E0EE0FFF1FE859FF4FA591B491EC9119
:10057000E92321F461E08AE00E94870061E08AE0DB
:100580000E9419018CB580618CBD8CB580648CBDD6
:1005900061E08DE00E94190161E08BE00E94190189
:1005A00080911F038F5F80931F03CFBF81E08093F3
:1005B0004703809348031092490310924A0361E075
:1005C00089E00E94190161E08CE00E94190161E05C
:1005D00085E00E94190161E086E00E94190161E056
:1005E00088E00E94190160E082E00E94190160E049
:1005F00083E00E94190162E084E00E94190162E038
:1006000087E00E94190161E081E00E94190140E049
:10061000442E40E0542E66246394712C68EF862E9D
:100620006FE7962EA12CB12C72E0E72EF12CC1E0E1
:1006300089B18295817080933C0389B1881F882796
:10064000881F80933B038091390390913A03019670
:1006500090933A0380933903089709F044C11092AC
:100660003A0310923903C0900A01D0900B018EE03A
:100670000E9482018C018C199D0997FF03C09195FE
:100680008195910945970CF4860110930B01009315
:100690000A01C0900801D090090182E10E94820104
:1006A0009C012C193D0937FF03C031952195310973
:1006B000253131050CF4C60190930901809308019E
:1006C000080F191F17FD07C0011524E012072CF0B1
:1006D0000FEF13E002C000E010E023E0159507954E
:1006E0002A95E1F7F801EE0FFF1FEE0FFF1FE25E04
:1006F000FE4F60817181828193810E946E067093AA
:100700001B0160931A01C0900601D09007018FE091
:100710000E9482018C018C199D0997FF03C091955D
:100720008195910945970CF4860110930701009378
:100730000601C0900401D090050183E10E9482016E
:100740009C012C193D0937FF03C0319521953109D2
:10075000253131050CF4C601909305018093040105
:10076000080F191F17FD07C0011584E018072CF0AA
:100770000FEF13E002C000E010E083E0159507954D
:100780008A95E1F7F801EE0FFF1FEE0FFF1FE25E03
:10079000FE4F60817181828193810E946E06709309
:1007A000190160931801C0901201D090130180E1EB
:1007B0000E9482018C018C199D0997FF03C09195BD
:1007C0008195910945970CF48601109313010093CC
:1007D000120184E10E9482012091100130911101E7
:1007E000AC01421B530B57FF03C051954195510972
:1007F000453151050CF09C013093110120931001FB
:10080000020F131F17FD07C0011524E012072CF07B
:100810000FEF13E002C000E010E0B3E0159507957C
:10082000BA95E1F7F801EE0FFF1FEE0FFF1FE25E32
:10083000FE4F60817181828193810E946E06709368
:10084000170160931601C0900E01D0900F0181E155
:100850000E9482018C018C199D0997FF03C091951C
:100860008195910945970CF4860110930F0100932F
:100870000E01C0900C01D0900D0185E10E94820113
:100880009C012C193D0937FF03C031952195310991
:10089000253131050CF4C60190930D0180930C01B4
:1008A000080F191F17FD07C0011584E018072CF069
:1008B0000FEF13E002C000E010E0E3E015950795AC
:1008C000EA95E1F7F801EE0FFF1FEE0FFF1FE25E62
:1008D000FE4F60817181828193810E946E067093C8
:1008E00015016093140180911D01882331F07092ED
:1008F00038036092370310921D0180911C018823F8
:1009000031F0709236036092350310921C01809191
:100910003703909138030197A1F580911A019091C6
:100920001B0173E0880F991F7A95E1F7092E000CDF
:10093000AA0BBB0B409131035091320360913303FA
:1009400070913403840F951FA61FB71F883F2FE7B0
:100950009207A105B1054CF48093310390933203C3
:10096000A0933303B09334030CC080923103909270
:100970003203A0923303B0923403F0923803E09232
:100980003703809129038823E1F08091250390911A
:100990002603A0912703B09128030A96A11DB11D3B
:1009A0002FB7F89440914203509143036091440360
:1009B000709145032FBF481759076A077B0708F056
:1009C00077C18091370390913803029709F048C0AE
:1009D0004091180150911901052E000C660B770B00
:1009E0008091310390913203A0913303B09134038D
:1009F000841B950BA60BB70B8093310390933203A6
:100A0000A0933303B0933403181619061A061B0675
:100A10003CF1109231031092320310923303109282
:100A2000340310923803109237032FB7F894809153
:100A3000420390914303A0914403B09145032FBF1B
:100A40008093250390932603A0932703B093280354
:100A5000C0932903299A80913C038111C0931D0101
:100A600080913503909136030197A1F5809116018D
:100A70009091170163E0880F991F6A95E1F7092E9D
:100A8000000CAA0BBB0B40912C0350912D036091DD
:100A90002E0370912F03840F951FA61FB71F883F49
:100AA0002FE79207A105B1054CF480932C03909396
:100AB0002D03A0932E03B0932F030CC080922C0320
:100AC00090922D03A0922E03B0922F03F092360342
:100AD000E0923503809124038823E1F08091200384
:100AE00090912103A0912203B09123030A96A11DA6
:100AF000B11D2FB7F8944091420350914303609188
:100B00004403709145032FBF481759076A077B07B5
:100B100008F0D2C08091350390913603029709F016
:100B200049C04091140150911501052E000C660B2F
:100B3000770B80912C0390912D03A0912E03B091FF
:100B40002F03841B950BA60BB70B181619061A0654
:100B50001B064CF480932C0390932D03A0932E033B
:100B6000B0932F0327C010922C0310922D031092E4
:100B70002E0310922F0310923603109235032FB7D5
:100B8000F8948091420390914303A0914403B09163
:100B900045032FBF8093200390932103A09322034A
:100BA000B0932303C09324032C9A80913B038111BB
:100BB000C0931C010E945E01809131039091320329
:100BC000A0913303B091340381309440A105B10565
:100BD000A4F180913003882381F1599A80912B03ED
:100BE0008F5F843019F080932B0303C010922B0386
:100BF0005998D0902A03DD0CD0922A030D2D10E0D5
:100C0000B80145E0759567954A95E1F7617085E013
:100C10000E94870056E0159507955A95E1F7602FD9
:100C2000617086E00E9487006D2D661F6627661F33
:100C300088E00E94870010923003809131039091E8
:100C40003203A0913303B0913403811524E092075D
:100C5000A105B10514F4C093300323E0B595A79521
:100C6000979587952A95D1F790934C0380934B03E2
:100C700080E00E94D40080912C0390912D03A091DC
:100C80002E03B0912F0333E0B595A79597958795DF
:100C90003A95D1F790934E0380934D0381E00E94E3
:100CA000D4004114510409F4C3CC0E940000C0CC0C
:100CB00010922903299885CE109224032C982ACFCC
:100CC000E6E4F3E010821182128281E08383848360
:100CD0001682158210861782128608950E94750664
:100CE0006894B1110C94C70608950E94AC0688F070
:100CF0009F5798F0B92F9927B751B0F0E1F0660FE0
:100D0000771F881F991F1AF0BA95C9F714C0B13020
:100D100091F00E94C606B1E008950C94C606672FB4
:100D2000782F8827B85F39F0B93FCCF3869577954F
:100D30006795B395D9F73EF4909580957095619538
:100D40007F4F8F4F9F4F089557FD9058440F551F69
:100D500059F05F3F71F04795880F97FB991F61F03D
:100D60009F3F79F087950895121613061406551FB4
:100D7000F2CF4695F1DF08C0161617061806991F20
:100D8000F1CF86957105610508940895E894BB2715
:100D900066277727CB0197F90895EE0FFF1F05907F
:0A0DA000F491E02D0994F894FFCFC0
:100DAA005D015D0100020002000200020002000271
:100DBA0000020002000200020002000201011937CB
:100DCA0047441A133D4441733344D8502A4471A509
:100DDA002144036B1944D39B114462320A44872984
:100DEA000344ADF8F843574CEC431D45E043A1DA00
:100DFA00D443EF04CA4366BCBF43DEF9B5438CB69D
:100E0A00AC43E7EBA343D3939B4380A893435A2471
:100E1A008C4326028543D6797C43CC9F6F433B6D36
:100E2A0063439CD95743E0DC4C43496F424396895C
:100E3A003843E3242F43913A26436CC41D4390BCA4
:100E4A001543541D0E436BE10643CB0300433EFF9B
:100E5A00F242B9A0E64267E3DA4210BFCF42E62B7C
:100E6A00C5428C22BB42FD9BB1428B91A842EBFC4E
:100E7A009F4219D897426A1D904272C7884210D180
:100E8A008142D66A7642C4DF694221F85D42A3AB49
:100E9A0052425FF24742DBC43D42F81B3442F3F050
:100EAA002A42683D224241FB1942B52412424EB4FD
:100EBA000A42D6A40342C2E2F9417D2AED41F4175F
:100ECA00E141C0A2D541DBC2CA41A870C041F6A423
:100EDA00B641E758AD410286A44119269C414F33D9
:100EEA0094411AA88C41337F85412D677D41138136
:100EFA0070410A4364418DA45841789D4D4114269E
:100F0A004341173739418BC92F41D7D62641C1589A
:100F1A001E4153491641EFA20E413A600741247C13
:100F2A000041B0E3F3408C79E7402FB1DB405E82A9
:100F3A00D04045E5C5407AD2BB40F442B2400630C3
:100F4A00A9405493A040DB669840E6A49040094823
:100F5A0089401D4B824080527740A0BB6A40D0C86E
:100F6A005E40B27153405AAE484044773E404BC54A
:100F7A003440A9912B40EFD52240038C1A401AAE77
:100F8A001240B4360B409A200440B0CDFA3F7309A0
:100F9A00EE3F94EBE13F996BD63F7981CB3F9425A5
:100FAA00C13FAB50B73FE1FBAD3FAF20A53FE5B82E
:0E0FBA009C3FA3BE943F562C8D3FB3FC853F59
:00000001FF
