:100000000C945D000C942A030C9403030C9485005B
:100010000C9485000C9485000C9485000C9485004C
:100020000C9485000C9485000C9485000C9485003C
:100030000C9485000C9485000C9485000C9485002C
:100040000C94B9020C9485000C9477030C94510322
:100050000C9485000C9485000C9485000C9485000C
:100060000C9485000C9485000000000024002700FB
:100070002A0000000000250028002B0004040404CE
:100080000404040402020202020203030303030342
:10009000010204081020408001020408102001021F
:1000A00004081020000000080002010000030407FB
:1000B0000000000000000000A90311241FBECFEFC4
:1000C000D8E0DEBFCDBF13E0A0E0B1E0E4EFF0E1A7
:1000D00002C005900D92AC35B107D9F724E0ACE52C
:1000E000B3E001C01D92AA32B207E1F710E0CDE5FE
:1000F000D0E004C02197FE010E946D08CC35D107E5
:10010000C9F70E94E3030C9478080C940000FC01EA
:10011000538D448D252F30E0842F90E0821B930B6C
:10012000541710F0CF96089501970895FC01918D12
:10013000828D981761F0828DDF01A80FB11D5D9649
:100140008C91928D9F5F9F73928F90E008958FEFB7
:100150009FEF0895FC01918D828D981731F0828D6B
:10016000E80FF11D858D90E008958FEF9FEF0895C2
:10017000FC01918D228D892F90E0805C9F4F821B26
:1001800091098F7399270895FC01848DDF01A80FD1
:10019000B11DA35ABF4F2C91848D90E001968F73AF
:1001A0009927848FA689B7892C93A089B1898C91CE
:1001B000837080648C93938D848D981306C002881D
:1001C000F389E02D80818F7D80830895EF92FF92E7
:1001D0000F931F93CF93DF93EC0181E0888F9B8D6A
:1001E0008C8D981305C0E889F989808185FD26C02A
:1001F000F62E0B8D10E00F5F1F4F0F731127E02EAF
:100200008C8DE8120CC00FB607FCFACFE889F9898B
:10021000808185FFF5CFCE010E94C400F1CF8B8D88
:10022000FE01E80FF11DE35AFF4FF0829FB7F894EB
:100230000B8FEA89FB89808180620AC09FB7F8949E
:10024000EE89FF896083E889F98980818370806401
:1002500080839FBF81E090E0DF91CF911F910F914C
:10026000FF90EF900895CF93DF93EC01888D882362
:10027000C9F0EA89FB89808185FD05C0A889B98913
:100280008C9186FD0FC00FB607FCF5CF808185FFEE
:10029000F2CFA889B9898C9185FFEDCFCE010E945C
:1002A000C400E7CFDF91CF91089582E893E00E94E8
:1002B000B80021E0892B09F420E0822F089580E026
:1002C00090E0892B29F00E94550181110C940000C7
:1002D000089590E0FC01EC55FF4F2491FC01E0579C
:1002E000FF4F3491FC01E458FF4FE491EE2309F4F1
:1002F0003CC0222339F1233091F038F42130A9F0A9
:10030000223001F584B58F7D12C0273091F028305E
:10031000A1F02430B9F4809180008F7D03C08091DA
:1003200080008F77809380000DC084B58F7784BD67
:1003300009C08091B0008F7703C08091B0008F7D9D
:100340008093B000F0E0EE0FFF1FEE58FF4FA59135
:10035000B4919FB7F894611104C08C913095382303
:1003600002C0EC913E2B3C939FBF0895CF93DF9347
:1003700090E0FC01EE0FFF1FE15EFB4FC581D681CF
:10038000DF709C013327269537952227C22BD32B6C
:10039000FC01E15EFB4F218191E0292730E0322F03
:1003A00022273295330F307EC22BD32B838198279F
:1003B000892F90E0982F88279295907FC82BD92B72
:1003C0008CB5837F8CBD60E0809128040E94690118
:1003D000DEBD00000DB407FEFDCF8EB5CEBD000022
:1003E0000DB407FEFDCF8EB561E080912804DF914A
:1003F000CF910C946901CF93DF9390E0FC01E0571B
:10040000FF4F2491FC01E458FF4F8491882361F150
:1004100090E0880F991FFC01E859FF4FC591D491D6
:10042000FC01EE58FF4FA591B491611109C09FB72F
:10043000F8948881209582238883EC912E230BC029
:10044000623061F49FB7F8948881322F309583230E
:100450008883EC912E2B2C939FBF06C08FB7F89406
:10046000E8812E2B28838FBFDF91CF9108950895C7
:10047000CF92DF92EF92FF920F931F93CF93DF9370
:100480006C017A018B01C0E0D0E0CE15DF0581F070
:10049000D8016D918D01D601ED91FC910190F08113
:1004A000E02DC6010995892B11F02196EECF7E0132
:1004B000C701DF91CF911F910F91FF90EF90DF90D7
:1004C000CF900895089580E090E0089530917A00EB
:1004D00090917A00987F946090937A008E3008F023
:1004E0008E508770806480937C0080917A00806455
:1004F00080937A0080917A0086FDFCCF809178000D
:100500002091790030937A0090E0922B0895CF9358
:10051000DF93009779F0FC0101900020E9F7319713
:10052000AF01481B590BBC0182E893E00E943802DE
:10053000EC0102C0C0E0D0E042E050E060E373E0D4
:1005400082E893E00E9438028C0F9D1FDF91CF91CB
:10055000089581E080931D0183E393E00C9487026A
:1005600081E080931C0187E493E00C9487020E9451
:1005700073081F920F920FB60F9211242F933F937F
:100580008F939F93AF93BF9380917E0390917F034E
:10059000A0918003B091810330917D0323E0230F6C
:1005A0002D3720F40196A11DB11D05C026E8230FAB
:1005B0000296A11DB11D20937D0380937E0390932D
:1005C0007F03A0938003B09381038091790390917E
:1005D0007A03A0917B03B0917C030196A11DB11D0C
:1005E0008093790390937A03A0937B03B0937C0369
:1005F000BF91AF919F918F913F912F910F900FBE1F
:100600000F901F9018951F920F920FB60F92112402
:100610002F933F934F935F936F937F938F939F930A
:10062000AF93BF93EF93FF93E0910201F091030129
:100630000995FF91EF91BF91AF919F918F917F911C
:100640006F915F914F913F912F910F900FBE0F903F
:100650001F9018951F920F920FB60F9211242F938F
:100660003F934F935F936F937F938F939F93AF933A
:10067000BF93EF93FF93E0910001F0910101099581
:10068000FF91EF91BF91AF919F918F917F916F916A
:100690005F914F913F912F910F900FBE0F901F9040
:1006A00018951F920F920FB60F9211242F933F931C
:1006B0004F935F936F937F938F939F93AF93BF936A
:1006C000EF93FF9382E893E00E94C400FF91EF91C3
:1006D000BF91AF919F918F917F916F915F914F915A
:1006E0003F912F910F900FBE0F901F9018951F9262
:1006F0000F920FB60F9211242F938F939F93EF9326
:10070000FF93E0919203F09193038081E09198032D
:10071000F091990382FD12C0908180919B038F5FBD
:100720008F7320919C03821751F0E0919B03F0E0BE
:10073000EE57FC4F958F80939B0301C08081FF9102
:10074000EF919F918F912F910F900FBE0F901F905F
:100750001895E2E8F3E01382128288EE93E0A0E0BD
:10076000B0E084839583A683B78382E293E091838C
:10077000808385EC90E09587848784EC90E0978770
:10078000868780EC90E0918B808B81EC90E0938B5E
:10079000828B82EC90E0958B848B86EC90E0978B3B
:1007A000868B118E128E138E148EEFE1F4E0108280
:1007B0001182128281E083838483168215821086DF
:1007C000178212860895789484B5826084BD84B5BA
:1007D000816084BD85B5826085BD85B5816085BD3C
:1007E00080916E00816080936E00109281008091F4
:1007F000810082608093810080918100816080937C
:100800008100809180008160809380008091B100A0
:1008100084608093B1008091B00081608093B000CB
:1008200080917A00846080937A0080917A0082605F
:1008300080937A0080917A00816080937A00809121
:100840007A00806880937A001092C10089EA92E071
:1008500090930101809300018091690083608093EF
:100860006900E89A80EB92E0909303018093020183
:10087000809169008C6080936900E99A10921F044E
:100880008AE08093280461E00E94FB0161E080918E
:1008900028040E946901CFB7F89480915C0381110C
:1008A00027C0E6E8F0E08491EAE9F0E09491E82FCF
:1008B000F0E0EE0FFF1FE859FF4FA591B491EC91C6
:1008C000E92321F461E08AE00E94690161E08AE0A5
:1008D0000E94FB018CB580618CBD8CB580648CBDA1
:1008E00061E08DE00E94FB0161E08BE00E94FB0172
:1008F00080915C038F5F80935C03CFBF81E0809326
:10090000200480932104109222041092230461E0B9
:1009100089E00E94FB0161E08CE00E94FB0161E044
:1009200085E00E94FB0161E086E00E94FB0161E03E
:1009300088E00E94FB0160E082E00E94FB0160E031
:1009400083E00E94FB0162E084E00E94FB0162E020
:1009500087E00E94FB0161E081E00E94FB0122240C
:100960002394312C38EF832E3FE7932EA12CB12C0A
:1009700042E0442E512C7724739489B18295817082
:100980008093780389B1881F8827881F8093770315
:1009900000910A0110910B018EE00E946602EC01A9
:1009A000801B910B97FF03C0919581959109459705
:1009B0000CF4E801D0930B01C0930A0100910801E7
:1009C0001091090182E10E9466029C01201B310BFB
:1009D00037FF03C0319521953109253131050CF4DC
:1009E000C8019093090180930801C80FD91FD7FD52
:1009F00007C0C11524E0D2072CF0CFEFD3E002C02E
:100A0000C0E0D0E083E0D595C7958A95E1F7CC0F9B
:100A1000DD1FCC0FDD1FC25EDE4F688179818A81C8
:100A20009B810E940E086B017C0170931B016093F7
:100A30001A0100910601109107018FE00E946602E1
:100A4000EC01801B910B97FF03C091958195910953
:100A500045970CF4E801D0930701C093060100917B
:100A600004011091050183E10E9466029C01201B94
:100A7000310B37FF03C031952195310925313105FF
:100A80000CF4C80190930501809304018C0F9D1F05
:100A900097FD07C0811524E092072CF08FEF93E0BB
:100AA00002C080E090E0EC0113E0D595C7951A955F
:100AB000E1F7CC0FDD1FCC0FDD1FC25EDE4F68817A
:100AC00079818A819B810E940E087093190160933D
:100AD0001801009112011091130180E10E94660239
:100AE000EC01801B910B97FF03C0919581959109B3
:100AF00045970CF4E801D0931301C09312010091C3
:100B000010011091110184E10E9466029C01201BDA
:100B1000310B37FF03C0319521953109253131055E
:100B20000CF4C80190931101809310018C0F9D1F4C
:100B300097FD07C0811524E092072CF08FEF93E01A
:100B400002C080E090E0EC01A3E0D595C795AA959E
:100B5000E1F7CC0FDD1FCC0FDD1FC25EDE4F6881D9
:100B600079818A819B810E940E087093170160939E
:100B7000160100910E0110910F0181E10E946602A1
:100B8000EC01801B910B97FF03C091958195910912
:100B900045970CF4E801D0930F01C0930E0100912A
:100BA0000C0110910D0185E10E9466029C01201B41
:100BB000310B37FF03C031952195310925313105BE
:100BC0000CF4C80190930D0180930C018C0F9D1FB4
:100BD00097FD07C0811524E092072CF08FEF93E07A
:100BE00002C080E090E0EC01E3E0D595C795EA957E
:100BF000E1F7CC0FDD1FCC0FDD1FC25EDE4F688139
:100C000079818A819B810E940E08709315016093FF
:100C1000140180911D01882331F0309276032092D7
:100C2000750310921D0180911C01882331F03092D0
:100C300074032092730310921C01809175039091AC
:100C40007603019789F573E0CC0CDD1C7A95E1F70A
:100C50000D2C000CEE08FF0880916F03909170033B
:100C6000A0917103B0917203C80ED91EEA1EFB1E3B
:100C700088EFC8168FE7D806E104F1044CF4C0925F
:100C80006F03D0927003E0927103F09272030CC074
:100C900080926F0390927003A0927103B0927203DE
:100CA0005092760340927503809166038823E1F0A9
:100CB0008091620390916303A0916403B0916503F6
:100CC0000A96A11DB11D2FB7F89440917E03509153
:100CD0007F0360918003709181032FBF48175907EC
:100CE0006A077B0708F092C18091750390917603A3
:100CF000029709F048C04091180150911901052E42
:100D0000000C660B770B80916F0390917003A0919C
:100D10007103B0917203841B950BA60BB70B8093E4
:100D20006F0390937003A0937103B093720318162E
:100D300019061A061B063CF110926F0310927003FD
:100D40001092710310927203109276031092750341
:100D50002FB7F89480917E0390917F03A091800338
:100D6000B09181032FBF8093620390936303A0939C
:100D70006403B093650370926603299A80917803A7
:100D8000811170921D0180917303909174030197FA
:100D9000A1F5809116019091170163E0880F991FCA
:100DA0006A95E1F7092E000CAA0BBB0B40916A0370
:100DB00050916B0360916C0370916D03840F951FCC
:100DC000A61FB71F883F2FE79207A105B1054CF476
:100DD00080936A0390936B03A0936C03B0936D03AD
:100DE0000CC080926A0390926B03A0926C03B09245
:100DF0006D035092740340927303809161038823C2
:100E0000E1F080915D0390915E03A0915F03B0914A
:100E100060030A96A11DB11D2FB7F89440917E037F
:100E200050917F0360918003709181032FBF481719
:100E300059076A077B0708F0EDC080917303909112
:100E40007403029709F049C04091140150911501B3
:100E5000052E000C660B770B80916A0390916B0353
:100E6000A0916C03B0916D03841B950BA60BB70B7F
:100E7000181619061A061B064CF480936A03909301
:100E80006B03A0936C03B0936D0327C010926A03A9
:100E900010926B0310926C0310926D031092740306
:100EA000109273032FB7F89480917E0390917F0383
:100EB000A0918003B09181032FBF80935D03909335
:100EC0005E03A0935F03B0936003709261032C9A5A
:100ED00080917703811170921C0180916F03909132
:100EE0007003A0917103B091720381309440A10509
:100EF000B1050CF454C080916E03882309F44FC0EF
:100F0000599A809169038F5F843019F08093690347
:100F100003C010926903599880916803880F8093E9
:100F2000680340916A0350916B0360916C03709168
:100F30006D03413090E259076105710544F09091CD
:100F40006703992359F081608093680307C04115B6
:100F500050426105710511F07092670310916803AA
:100F6000C12FD0E0BE0145E0759567954A95E1F740
:100F7000617085E00E94690156E0D595C7955A9544
:100F8000E1F76C2F617086E00E946901612F661F96
:100F90006627661F88E00E94690110926E038091A7
:100FA0006F0390917003A0917103B091720381154A
:100FB00024E09207A105B10514F470926E0323E0BA
:100FC000B595A795979587952A95D1F79093250480
:100FD0008093240480E00E94B60180916A0390917E
:100FE0006B03A0916C03B0916D0333E0B595A795A9
:100FF000979587953A95D1F7909327048093260487
:1010000081E00E94B6010E945F01B7CC1092660396
:1010100029986ACE109261032C980FCF0E94150870
:101020006894B1110C94670808950E944C0888F0E8
:101030009F5798F0B92F9927B751B0F0E1F0660F9C
:10104000771F881F991F1AF0BA95C9F714C0B130DD
:1010500091F00E946608B1E008950C946608672F2D
:10106000782F8827B85F39F0B93FCCF3869577950C
:101070006795B395D9F73EF49095809570956195F5
:101080007F4F8F4F9F4F089557FD9058440F551F26
:1010900059F05F3F71F04795880F97FB991F61F0FA
:1010A0009F3F79F087950895121613061406551F71
:1010B000F2CF4695F1DF08C0161617061806991FDD
:1010C000F1CF86957105610508940895E894BB27D2
:1010D00066277727CB0197F90895EE0FFF1F05903C
:1010E000F491E02D099481E090E0F8940C94780854
:0410F000F894FFCFA2
:1010F400370237020002000200020002000200026E
:10110400000200020002000200020002010119377D
:1011140047441A133D4441733344D8502A4471A5BB
:101124002144036B1944D39B114462320A44872936
:101134000344ADF8F843574CEC431D45E043A1DAB2
:10114400D443EF04CA4366BCBF43DEF9B5438CB64F
:10115400AC43E7EBA343D3939B4380A893435A2424
:101164008C4326028543D6797C43CC9F6F433B6DE9
:1011740063439CD95743E0DC4C43496F424396890F
:101184003843E3242F43913A26436CC41D4390BC57
:101194001543541D0E436BE10643CB0300433EFF4E
:1011A400F242B9A0E64267E3DA4210BFCF42E62B2F
:1011B400C5428C22BB42FD9BB1428B91A842EBFC01
:1011C4009F4219D897426A1D904272C7884210D133
:1011D4008142D66A7642C4DF694221F85D42A3ABFC
:1011E40052425FF24742DBC43D42F81B3442F3F003
:1011F4002A42683D224241FB1942B52412424EB4B0
:101204000A42D6A40342C2E2F9417D2AED41F41711
:10121400E141C0A2D541DBC2CA41A870C041F6A4D5
:10122400B641E758AD410286A44119269C414F338B
:1012340094411AA88C41337F85412D677D411381E8
:1012440070410A4364418DA45841789D4D41142650
:101254004341173739418BC92F41D7D62641C1584D
:101264001E4153491641EFA20E413A600741247CC6
:101274000041B0E3F3408C79E7402FB1DB405E825C
:10128400D04045E5C5407AD2BB40F442B240063076
:10129400A9405493A040DB669840E6A490400948D6
:1012A40089401D4B824080527740A0BB6A40D0C821
:1012B4005E40B27153405AAE484044773E404BC5FD
:1012C4003440A9912B40EFD52240038C1A401AAE2A
:1012D4001240B4360B409A200440B0CDFA3F730953
:1012E400EE3F94EBE13F996BD63F7981CB3F942558
:1012F400C13FAB50B73FE1FBAD3FAF20A53FE5B8E1
:101304009C3FA3BE943F562C8D3FB3FC853F000009
:101314000000E600380287003301B8009600AA00F6
:101324000D0A003E3E3E206761746541496E746556
:1013340072727570743A003E3E3E20676174654275
:0C134400496E746572727570743A000096
:00000001FF
