:100000000C945D000C9415020C94EE010C94850088
:100010000C9485000C9485000C9485000C9485004C
:100020000C9485000C9485000C9485000C9485003C
:100030000C9485000C9485000C9485000C9485002C
:100040000C94A4010C9485000C9485000C948500FC
:100050000C9485000C9485000C9485000C9485000C
:100060000C9485000C9485000000000024002700FB
:100070002A0000000000250028002B0004040404CE
:100080000404040402020202020203030303030342
:10009000010204081020408001020408102001021F
:1000A00004081020000000080002010000030407FB
:1000B0000000000000000000C50611241FBECFEFA5
:1000C000D8E0DEBFCDBF13E0A0E0B1E0EEE7F0E1A5
:1000D00002C005900D92A432B107D9F723E0A4E243
:1000E000B3E001C01D92A436B207E1F710E0CDE500
:1000F000D0E004C02197FE010E943708CC35D1071B
:10010000C9F70E943C020C943D080C94000090E05A
:10011000FC01EC55FF4F2491FC01E057FF4F349157
:10012000FC01E458FF4FE491EE2309F43CC0222384
:1001300039F1233091F038F42130A9F0223001F563
:1001400084B58F7D12C0273091F02830A1F0243083
:10015000B9F4809180008F7D03C0809180008F77FB
:10016000809380000DC084B58F7784BD09C08091D5
:10017000B0008F7703C08091B0008F7D8093B00076
:10018000F0E0EE0FFF1FEE58FF4FA591B4919FB71F
:10019000F894611104C08C913095382302C0EC9121
:1001A0003E2B3C939FBF0895CF93DF9390E0FC01DB
:1001B000EE0FFF1FE75AFC4FC581D681DF709C010F
:1001C0003327269537952227C22BD32BFC01E75ADC
:1001D000FC4F218191E0292730E0322F22273295F0
:1001E000330F307EC22BD32B83819827892F90E049
:1001F000982F88279295907FC82BD92B8CB5837F19
:100200008CBD60E0809162030E948700DEBD00002B
:100210000DB407FEFDCF8EB5CEBD00000DB407FEB8
:10022000FDCF8EB561E080916203DF91CF910C9498
:100230008700CF93DF9390E0FC01E057FF4F2491BC
:10024000FC01E458FF4F8491882361F190E0880F0E
:10025000991FFC01E859FF4FC591D491FC01EE585C
:10026000FF4FA591B491611109C09FB7F89488819F
:10027000209582238883EC912E230BC0623061F499
:100280009FB7F8948881322F309583238883EC912F
:100290002E2B2C939FBF06C08FB7F894E8812E2B8E
:1002A00028838FBFDF91CF9108958E3008F08E5054
:1002B0008770806480937C0080917A008064809352
:1002C0007A0080917A0086FDFCCF809178002091A1
:1002D000790090E0922B089581E080931F010895AA
:1002E00081E080931E01089508951F93CF93DF93BB
:1002F000CAE7D0E018819881987F946098830E9423
:1003000055011883DF91CF911F910895CF92DF920D
:10031000EF92FF92CF93DF93CFE2D3E0C12CD12CA9
:100320007601CA940E941E07A70196010E947507D4
:10033000699383E0CF33D807A9F7DF91CF91FF907E
:10034000EF90DF90CF9008951F920F920FB60F920B
:1003500011242F933F938F939F93AF93BF938091DB
:10036000550390915603A0915703B09158033091D3
:10037000540323E0230F2D3720F40196A11DB11D56
:1003800005C026E8230F0296A11DB11D209354033A
:100390008093550390935603A0935703B09358034B
:1003A0008091500390915103A0915203B091530357
:1003B0000196A11DB11D8093500390935103A0930A
:1003C0005203B0935303BF91AF919F918F913F918F
:1003D0002F910F900FBE0F901F9018951F920F92A4
:1003E0000FB60F9211242F933F934F935F936F9308
:1003F0007F938F939F93AF93BF93EF93FF93E0917E
:100400000201F09103010995FF91EF91BF91AF9126
:100410009F918F917F916F915F914F913F912F911C
:100420000F900FBE0F901F9018951F920F920FB64E
:100430000F9211242F933F934F935F936F937F936A
:100440008F939F93AF93BF93EF93FF93E09100013E
:10045000F09101010995FF91EF91BF91AF919F91AB
:100460008F917F916F915F914F913F912F910F905D
:100470000FBE0F901F901895789484B5826084BD4C
:1004800084B5816084BD85B5826085BD85B5816098
:1004900085BD80916E00816080936E001092810016
:1004A00080918100826080938100809181008160D1
:1004B0008093810080918000816080938000809192
:1004C000B10084608093B1008091B000816080931E
:1004D000B00080917A00846080937A0080917A00E5
:1004E000826080937A0080917A00816080937A00A4
:1004F00080917A00806880937A001092C1008CE627
:1005000091E09093010180930001809169008360E4
:1005100080936900E89A80E791E0909303018093CB
:100520000201809169008C6080936900E99A1092C1
:1005300059038AE08093620361E00E94190161E03F
:10054000809162030E948700CFB7F89480912403C2
:10055000811127C0E6E8F0E08491EAE9F0E09491A7
:10056000E82FF0E0EE0FFF1FE859FF4FA591B4917F
:10057000EC91E92321F461E08AE00E94870061E0C8
:100580008AE00E9419018CB580618CBD8CB58064B5
:100590008CBD61E08DE00E94190161E08BE00E945A
:1005A0001901809124038F5F80932403CFBF81E0E2
:1005B00080935A0380935B0310925C0310925D0357
:1005C00061E089E00E94190161E08CE00E9419015C
:1005D00061E085E00E94190161E086E00E94190156
:1005E00061E088E00E94190160E082E00E94190148
:1005F00060E083E00E94190162E084E00E9419013A
:1006000062E087E00E94190161E081E00E94190127
:100610008FE00E945501EC0181E10E9455019C018F
:10062000C29FC001C39F900DD29F900D1124BC01A9
:10063000990F880B990B611571058105910511F0D2
:100640000E946C070E94860129EA222E20E0322EA9
:1006500030E0432E30E0532E88248394912C58EFC1
:10066000C52E5FE7D52EE12CF12C02E010E07724B7
:10067000739489B18295817080934F0389B1881FEB
:100680008827881F80934E03A0900A01B0900B0129
:100690008EE00E947501EC018A199B0997FF03C047
:1006A00091958195910945970CF4E501D0930B0143
:1006B000C0930A01A0900801B090090182E10E9454
:1006C00075019C012A193B0937FF03C0319521951B
:1006D0003109253131050CF4C5019093090180934E
:1006E00008018C0F9D1F97FD07C0811534E093070B
:1006F0002CF08FEF93E002C080E090E0EC0183E00B
:10070000D595C7958A95E1F7CC0FDD1FCC0FDD1F7E
:10071000CC5DDE4F688179818A819B810E94D807F8
:1007200070931D0160931C01A0900601B090070119
:100730008FE00E947501EC018A199B0997FF03C0A5
:1007400091958195910945970CF4E501D0930701A6
:10075000C0930601A0900401B090050183E10E94BE
:1007600075019C012A193B0937FF03C0319521957A
:100770003109253131050CF4C501909305018093B1
:1007800004018C0F9D1F97FD07C08115E4E09E07B3
:100790002CF08FEF93E002C080E090E0EC01A3E04A
:1007A000D595C795AA95E1F7CC0FDD1FCC0FDD1FBE
:1007B000CC5DDE4F688179818A819B810E94D80758
:1007C00070931B0160931A01C0911401D09115011F
:1007D00080E10E9475019C012C1B3D0B37FF03C07B
:1007E000319521953109253131050CF4CE019093D5
:1007F0001501809314012091120130911301821789
:10080000930711F00E948601C0911401D091150147
:10081000D0931301C0931201A0901001B090110168
:1008200084E10E9475019C012A193B0937FF03C02E
:10083000319521953109253131050CF4C50190938D
:100840001101809310018C0F9D1F97FD07C081152A
:10085000F4E09F072CF08FEF93E002C080E090E07F
:10086000EC01E3E0D595C795EA95E1F7CC0FDD1FE4
:10087000CC0FDD1FCC5DDE4F688179818A819B8141
:100880000E94D8077093190160931801A0900E017F
:10089000B0900F0181E10E947501EC018A199B095A
:1008A00097FF03C091958195910945970CF4E50157
:1008B000D0930F01C0930E01A0900C01B0900D01D8
:1008C00085E10E9475019C012A193B0937FF03C08D
:1008D000319521953109253131050CF4C5019093ED
:1008E0000D0180930C018C0F9D1F97FD07C0811592
:1008F00024E092072CF08FEF93E002C080E090E0BC
:10090000EC0163E0D595C7956A95E1F7CC0FDD1F43
:10091000CC0FDD1FCC5DDE4F688179818A819B81A0
:100920000E94D807709317016093160180911F01F0
:10093000882331F090924D0380924C0310921F0156
:1009400080911E01882331F090924B0380924A03DC
:1009500010921E0180914C0390914D030197A1F5D7
:1009600080911C0190911D0153E0880F991F5A95A9
:10097000E1F7092E000CAA0BBB0B409146035091E6
:1009800047036091480370914903840F951FA61F88
:10099000B71F883F3FE79307A105B1054CF480934B
:1009A000460390934703A0934803B09349030CC0B8
:1009B000C0924603D0924703E0924803F092490365
:1009C00010934D0300934C0380912E038823E1F094
:1009D00080912A0390912B03A0912C03B0912D03B9
:1009E0000A96A11DB11D2FB7F8944091550350915F
:1009F000560360915703709158032FBF481759074A
:100A00006A077B0708F0B9C180914C0390914D03B0
:100A1000029709F048C040911A0150911B01052E20
:100A2000000C660B770B8091460390914703A091D1
:100A30004803B0914903841B950BA60BB70B809319
:100A4000460390934703A0934803B09349031816B5
:100A500019061A061B063CF1109246031092470332
:100A6000109248031092490310924D0310924C03C8
:100A70002FB7F8948091550390915603A091570396
:100A8000B09158032FBF80932A0390932B03A09318
:100A90002C03B0932D0370922E03299A80914F035B
:100AA000811170921F0180914A0390914B0301972D
:100AB000A1F5809118019091190143E0880F991FC9
:100AC0004A95E1F7092E000CAA0BBB0B409141039C
:100AD000509142036091430370914403840F951F2A
:100AE000A61FB71F883FEFE79E07A105B1054CF48D
:100AF0008093410390934203A0934303B093440334
:100B00000CC0C0924103D0924203E0924303F092A2
:100B1000440310934B0300934A03809129038823D5
:100B2000E1F08091250390912603A0912703B091D5
:100B300028030A96A11DB11D2FB7F89440915503C3
:100B40005091560360915703709158032FBF481777
:100B500059076A077B0708F014C180914A039091F6
:100B60004B03029709F049C04091160150911701BB
:100B7000052E000C660B770B809141039091420388
:100B8000A0914303B0914403841B950BA60BB70BB4
:100B9000181619061A061B064CF48093410390930D
:100BA0004203A0934303B093440327C01092410330
:100BB00010924203109243031092440310924B038D
:100BC00010924A032FB7F8948091550390915603E1
:100BD000A0915703B09158032FBF809325039093A2
:100BE0002603A0932703B0932803709229032C9A1D
:100BF00080914E03811170921E0180914603909165
:100C00004703A0914803B091490381309440A10566
:100C1000B1050CF477C080914503882309F472C0B4
:100C2000599A809140038F5F843019F0809340037C
:100C300003C010924003599880913F038F5F803129
:100C400019F080933F0302C010923F03E0913F03ED
:100C5000F0E0E15DFC4FB080CB2DD0E061E085E0BD
:100C60000E941901209711F460E004C0CF3FD10524
:100C700029F461E085E00E94870042C0F10184917F
:100C80008330F9F048F48130B9F08230A1F584B5B1
:100C9000806284BDB8BC34C08730E9F0883019F177
:100CA000843049F580918000806280938000D093E9
:100CB0008B00C0938A0024C084B5806884BDB7BC13
:100CC0001FC080918000806880938000D09389004D
:100CD000C093880015C08091B00080688093B000F8
:100CE000B092B3000DC08091B00080628093B000DC
:100CF000B092B40005C0C038D1050CF0BACFB4CF63
:100D0000109245038091460390914703A0914803B8
:100D1000B09149038115F4E09F07A105B10514F4D2
:100D20007092450323E0B595A795979587952A95E9
:100D3000D1F790935F0380935E0380E00E94D4001C
:100D40008091410390914203A0914303B0914403E9
:100D500033E0B595A795979587953A95D1F79093F8
:100D600061038093600381E00E94D4004114510428
:100D700009F47FCC0E9400007ACC10922E032998AF
:100D800043CE109229032C98E8CEE9E5F3E01082D7
:100D90001182128281E083838483168215821086F9
:100DA0001782128608958F929F92AF92BF92CF9230
:100DB000DF92EF92FF92CF93DF93EC01688179810C
:100DC0008A819B81611571058105910521F464E299
:100DD00079ED8BE597E02DE133EF41E050E00E94A3
:100DE000750749015A019B01AC01A7EAB1E40E94D1
:100DF00094076B017C01ACEEB4EFA50194010E9455
:100E0000A207DC01CB018C0D9D1DAE1DBF1DB7FFE0
:100E100003C00197A109B04888839983AA83BB8343
:100E2000BC01CD019F77DF91CF91FF90EF90DF90D4
:100E3000CF90BF90AF909F908F9008958F929F9288
:100E4000AF92BF92CF92DF92EF92FF92609120011A
:100E5000709121018091220190912301611571050A
:100E60008105910521F464E279ED8BE597E02DE1B0
:100E700033EF41E050E00E94750749015A019B01A0
:100E8000AC01A7EAB1E40E9494076B017C01ACEECF
:100E9000B4EFA50194010E94A207DC01CB018C0DE7
:100EA0009D1DAE1DBF1DB7FF03C00197A109B0482E
:100EB0008093200190932101A0932201B0932301FC
:100EC000BC01CD019F77FF90EF90DF90CF90BF9056
:100ED000AF909F908F9008956093200170932101AF
:100EE00080932201909323010895052E97FB1EF411
:100EF00000940E948C0757FD07D00E94A70707FCAB
:100F000003D04EF40C948C07509540953095219564
:100F10003F4F4F4F5F4F0895909580957095619525
:100F20007F4F8F4F9F4F08950E94C907A59F900D37
:100F3000B49F900DA49F800D911D11240895B7FFBB
:100F40000C9494070E949407821B930B0895A1E2CE
:100F50001A2EAA1BBB1BFD010DC0AA1FBB1FEE1F33
:100F6000FF1FA217B307E407F50720F0A21BB30B7E
:100F7000E40BF50B661F771F881F991F1A9469F7FA
:100F800060957095809590959B01AC01BD01CF0156
:100F90000895A29FB001B39FC001A39F700D811D52
:100FA0001124911DB29F700D811D1124911D089572
:100FB0000E94DF076894B1110C94310808950E94D3
:100FC000160888F09F5798F0B92F9927B751B0F0BD
:100FD000E1F0660F771F881F991F1AF0BA95C9F7BD
:100FE00014C0B13091F00E943008B1E008950C9423
:100FF0003008672F782F8827B85F39F0B93FCCF3D6
:10100000869577956795B395D9F73EF49095809539
:10101000709561957F4F8F4F9F4F089557FD905862
:10102000440F551F59F05F3F71F04795880F97FBAC
:10103000991F61F09F3F79F0879508951216130666
:101040001406551FF2CF4695F1DF08C01616170695
:101050001806991FF1CF86957105610508940895CA
:10106000E894BB2766277727CB0197F90895EE0F01
:0E107000FF1F0590F491E02D0994F894FFCF36
:10107E00740174010002000200020002000200026C
:10108E000002000200020002000200020002010142
:10109E0001000000193747441A133D44417333448D
:1010AE00D8502A4471A52144036B1944D39B114493
:1010BE0062320A4487290344ADF8F843574CEC4397
:1010CE001D45E043A1DAD443EF04CA4366BCBF43D7
:1010DE00DEF9B5438CB6AC43E7EBA343D3939B4306
:1010EE0080A893435A248C4326028543D6797C43A9
:1010FE00CC9F6F433B6D63439CD95743E0DC4C431D
:10110E00496F424396893843E3242F43913A26434D
:10111E006CC41D4390BC1543541D0E436BE1064336
:10112E00CB0300433EFFF242B9A0E64267E3DA4248
:10113E0010BFCF42E62BC5428C22BB42FD9BB14273
:10114E008B91A842EBFC9F4219D897426A1D9042A0
:10115E0072C7884210D18142D66A7642C4DF694294
:10116E0021F85D42A3AB52425FF24742DBC43D42DF
:10117E00F81B3442F3F02A42683D224241FB1942E9
:10118E00B52412424EB40A42D6A40342C2E2F94139
:10119E007D2AED41F417E141C0A2D541DBC2CA411F
:1011AE00A870C041F6A4B641E758AD410286A441ED
:1011BE0019269C414F3394411AA88C41337F8541A7
:1011CE002D677D41138170410A4364418DA45841BE
:1011DE00789D4D4114264341173739418BC92F4114
:1011EE00D7D62641C1581E4153491641EFA20E4192
:1011FE003A600741247C0041B0E3F3408C79E7402C
:10120E002FB1DB405E82D04045E5C5407AD2BB406F
:10121E00F442B2400630A9405493A040DB66984099
:10122E00E6A49040094889401D4B82408052774089
:10123E00A0BB6A40D0C85E40B27153405AAE48401F
:10124E0044773E404BC53440A9912B40EFD5224008
:10125E00038C1A401AAE1240B4360B409A2004404A
:10126E00B0CDFA3F7309EE3F94EBE13F996BD63F59
:10127E007981CB3F9425C13FAB50B73FE1FBAD3FEA
:10128E00AF20A53FE5B89C3FA3BE943F562C8D3FA3
:04129E00B3FC853FD9
:00000001FF
